:020000040800F2
:1000000020CA002051030008E739000837360008ED
:10001000E53900084F2000085D430008000000009B
:10002000000000000000000000000000B90200080D
:100030005120000800000000FD020008A541000852
:100040006B0300086B0300086B0300086B030008D8
:100050006B0300086B0300086B0300086B030008C8
:100060006B0300086B030008552000086B030008B1
:100070006B0300086B0300086B0300086B030008A8
:100080006B0300086B0300086B0300086B03000898
:100090006B0300086B0300086B0300086B03000888
:1000A0006B0300086B0300086B0300086B03000878
:1000B0006B0300086B0300086B0300086B03000868
:1000C0006B0300086B0300086B0300086B03000858
:1000D0006B0300083D4300086B0300086B03000836
:1000E0006B0300086B0300086B0300086B03000838
:1000F0006B0300086B0300086B0300086B03000828
:100100006B0300086B0300086B0300086B03000817
:100110006B0300086B030008C14100086B03000873
:100120006B0300086B0300086B0300086B030008F7
:1001300000F002F800F0B0F80AA090E8000C824449
:100140008344AAF10107DA4501D100F0A5F8AFF226
:10015000090EBAE80F0013F0010F18BFFB1A43F0A5
:10016000010318474C9206006C9206000A444FF0B7
:10017000000C10F8013B13F0070408BF10F8014B06
:100180001D1108BF10F8015B641E05D010F8016B4B
:10019000641E01F8016BF9D113F0080F1EBF10F8AF
:1001A000014BAD1C0C1B09D16D1E58BF01F801CBD2
:1001B000FAD505E014F8016B01F8016B6D1EF9D555
:1001C0009142D6D37047000000230024002500266A
:1001D000103A28BF78C1FBD8520728BF30C148BFAA
:1001E0000B6070476E2900F0B985702900F0B1826C
:1001F000662922F0BF86652922F0BC86672922F095
:10020000B986612922F0B88603681B0A28BF41F02D
:100210008001692900F0E481642900F0E1817529F9
:1002200000F0DE816F2901F08A80782900F07D825C
:10023000E92900F01182E42900F00E82F52900F08E
:100240000B82EF2901F08780F82900F07C82036897
:10025000DB0928BF41F08001632900F0D2877329B0
:1002600000F0D787E32901F04D82F32901F0528293
:10027000002070471FB501F079F80400002000212C
:1002800022F04EFA401C60600020002122F032FA79
:10029000E0601FBD10B510BD01F0DAFA1146FFF79E
:1002A000E9FF1CF02FFA01F001FB03B4FFF7F2FFA6
:1002B00003BC05F04DFC0000224B19680868B0E84B
:1002C000F00F80F30988BFF36F8F4FF0000080F3C9
:1002D00011884EF00D0E70470000000006480068BF
:1002E000006880F3088862B661B6BFF34F8FBFF332
:1002F0006F8F00DF00BF00BF08ED00E0EFF3098063
:10030000BFF36F8F0F4B1A6820E9F00F106008B52C
:100310004FF0500080F31188BFF34F8FBFF36F8F02
:1003200021F0B2FB4FF0000080F31188BDE80840D7
:1003300019680868B0E8F00F80F30988BFF36F8F81
:10034000704700BF60020020EFF305807047000097
:100350000948804709480047FEE7FEE7FEE7FEE759
:10036000FEE7FEE7FEE7FEE7FEE7FEE70448054995
:10037000054A064B70470000BD41000831010008E6
:1003800020B8002020CA002020BA002020BA002077
:10039000704753EA020C00F069802DE9F04B4FF0F2
:1003A0000006002B1FBFB3FA83F503FA05F424FA05
:1003B00005F65E4012BF1643B2FA82F502FA05F462
:1003C000C5F120051EBF22FA05FC44EA0C042035C5
:1003D00056EA044C4FEA144418BF641C4FF000085E
:1003E0004FF00009904271EB030C39D3002919BF7B
:1003F000B1FA81F701FA07F6B0FA80F700FA07F6CA
:10040000C7F120071EBF20FA07FC46EA0C0620377A
:10041000B6FBF4FCA7EB0507103F07F01F0BCBF171
:1004200020060CFA0BFB2CFA06F644BFB346002656
:10043000202FA4BF5E464FF0000B5BEA060C08BFFE
:100440004FF0010B19EB0B09ABFB027C48EB0608E4
:10045000C01B06FB02CC0BFB03CC71EB0C01C1E70C
:100460000B46024641464846BDE8F08B13B54FF0B7
:1004700000004FF00001AFF30080BDE81C40704762
:1004800010B54C1084EA530404D54042C1F1000178
:1004900038BF491E1B4204D55242C3F1000338BF86
:1004A0005B1EFFF776FF14F0804F04D04042C1F18D
:1004B000000138BF491E14F0004F04D05242C3F16E
:1004C000000338BF5B1E10BD7CB51D4616460C00F0
:1004D000009001D02044401E074B7B442A466946C9
:1004E0000190304600F063FE05461CB100206946CD
:1004F00000F070FE28467CBD010D00000FB40449D9
:1005000010B503AA029800F089FE10BC5DF814FB38
:10051000140000200FB41CB5084B06AA7B446946A2
:100520000090059800F043FE04460020694600F064
:1005300051FE20461CBC5DF814FB0000B50C000009
:1005400070B5044685690068C10601D5302600E013
:100550002026C00707D070BDD4E90121304690475E
:10056000206A401C20626D1EF6D570BD70B5044631
:1005700085690078C00707D170BDD4E9012120202A
:100580009047206A401C20626D1EF6D570BD70B584
:100590000C460546012A05D02878800600D5EA6970
:1005A000002302E0012305E05B1C934202D2E05CE1
:1005B0000028F9D1A869E618C01AA861286A184469
:1005C00028622846FFF7BCFF04E0D5E9012114F8B2
:1005D000010B9047B442F8D32846FFF7C7FF70BD20
:1005E0002DE9F0410646002410687529314616A50C
:1005F00010D000F048FB002802DA404213A507E0C3
:1006000031688A0701D512A502E0490704D511A572
:10061000012401E000F040FB00210A2206F124073A
:1006200009E0B0FBF2FCB0FBF2F302FB1C0030303F
:1006300078541846491C0028F3D123462A463046F0
:10064000BDE8F04100F031BB000000002D000000CB
:100650002B000000200000002DE9F0418046D21D53
:1006600022F007020025D2E90002F52915A614D0D0
:10067000011E72F1000106DA0023D0EB030063EBE8
:10068000020211A608E0D8F800108B0701D50FA6CA
:1006900002E0490701D50EA601251146002408F104
:1006A000240704E000F0AAFA30323A55641C50EAFC
:1006B0000102F7D12B46324621464046BDE8F041C3
:1006C00000F0F3BA000000002D0000002B00000035
:1006D00020000000F0B40D460188090502D5214C28
:1006E0007C4402E01F4C7C440E34002100F12406BF
:1006F00008E002F00F071209E75D42EA03721B09E6
:100700007754491C52EA0307F3D1027800231207F9
:1007100004D5702D06D009B1022311342246F0BC55
:1007200000F0C3BA01231034F8E770B504460D4653
:100730002146106800F0B0FA024629462046BDE87E
:1007400070400023C6E7D21D22F00703D3E900233F
:10075000C0E70368126843F0200303600823C36105
:100760000023B7E7CE8B06002DE9F05F89460446EB
:100770004FF0000ADFF874B1FB44C0F820A0204617
:10078000E1688847002874D0252806D0D4E90121E3
:100790009047206A401C2062F1E700265F46204611
:1007A000E16888472028054607DB312D05D27819F6
:1007B00010F8200C08B10643F1E7B00701D526F088
:1007C0000406C4F81CA00027C4F818A02A2D09D0DC
:1007D000284603F0E8FD38B304EB8708303DC8F83D
:1007E000185019E059F8041B204604EB8702916168
:1007F000E1688847012F054618D1E069002820DA12
:1008000026F020061DE0D8F8180000EB800005EB6C
:1008100040003038C8F818002046E168884705468F
:1008200003F0C1FD0028EED1012F0AD02E2D08D1F2
:100830002046E16888477F1C0546022F46F02006C7
:10084000C4DBA069002803DA404246F00106A0613B
:10085000F00701D026F010066C2D0BD0682D09D0C2
:100860004C2D39D06A2D35D0742D35D07A2D33D01A
:1008700016E038E0E1682F4620468847B842054632
:1008800009D16C2F26D04FF48060E16806432046E2
:100890008847054604E06C2F1AD04FF48070064359
:1008A0000DB3A5F14100192802D8203546F40066A1
:1008B0004A462946204626604E46FFF793FC80B103
:1008C00001280BD0F61D26F0070000F1080956E7B5
:1008D0004020E4E78020D8E70020D6E706F10409AD
:1008E0004DE7284652E7206ABDE8F09F5E8B060080
:1008F000401ECAB210F8011F8A4202D00029F9D165
:100900000020704740EA010310B59B070FD1042A6D
:100910000DD310C808C9121F9C42F8D020BA19BACA
:10092000884201D9012010BD4FF0FF3010BD1AB12F
:10093000D30703D0521C07E0002010BD10F8013B84
:1009400011F8014B1B1B07D110F8013B11F8014BAB
:100950001B1B01D1921EF1D1184610BD40EA0103C4
:10096000024630B59B0710D14FF0013400E008C2B9
:1009700008C91D1B9D4315EAC41FF8D013F0FF01E1
:1009800002F8011B0DD01B0AF8E711F8013B002B00
:1009900002F8013B05D011F8013B002B02F8013BA6
:1009A000F3D130BD10B5431C02E010F8011B71B14A
:1009B0008107FAD14FF0013202C88C1A8C4314EA35
:1009C000C211F9D0C01A0A0603D0C01E10BDC01A49
:1009D00010BD0A0401D0801E10BD0902FCD0401ECB
:1009E00010BD032A40F2308010F0030C00F0158097
:1009F00011F8013BBCF1020F624498BF11F801CB22
:100A000000F8013B38BF11F8013BA2F1040298BF86
:100A100000F801CB38BF00F8013B11F0030300F0F0
:100A20002580083AC0F0088051F8043B083A51F894
:100A300004CBA0E80810F5E7121D5CBF51F8043B99
:100A400040F8043BAFF30080D20724BF11F8013B0C
:100A500011F801CB48BF11F8012B24BF00F8013B6E
:100A600000F801CB48BF00F8012B704710B5203AC1
:100A7000C0F00B80B1E81850203AA0E81850B1E857
:100A80001850A0E81850BFF4F5AF5FEA027C24BF0D
:100A9000B1E81850A0E8185044BF18C918C0BDE804
:100AA00010405FEA827C24BF51F8043B40F8043BCD
:100AB00008BF7047D20728BF31F8023B48BF11F882
:100AC000012B28BF20F8023B48BF00F8012B7047DC
:100AD00002F0FF0343EA032242EA024200F002B8B6
:100AE0004FF000020429C0F0128010F0030C00F057
:100AF0001B80CCF1040CBCF1020F18BF00F8012BD5
:100B0000A8BF20F8022BA1EB0C0100F00DB85FEAA2
:100B1000C17C24BF00F8012B00F8012B48BF00F86E
:100B2000012B70474FF0000200B5134694469646DD
:100B3000203922BFA0E80C50A0E80C50B1F12001F0
:100B4000BFF4F7AF090728BFA0E80C5048BF0CC09E
:100B50005DF804EB890028BF40F8042B08BF7047FC
:100B600048BF20F8022B11F0804F18BF00F8012B6E
:100B7000704700004FF0013C50F8042B51F8043B43
:100B80009A4221D1A2EB0C03934313EACC1317D161
:100B900050F8042B51F8043B9A4215D1A2EB0C03F8
:100BA000934313EACC130BD150F8042B51F8043BB8
:100BB0009A4209D1A2EB0C03934313EACC13DBD086
:100BC0004FF00000704700BFD01A01BAB1FA81F1AE
:100BD00001F0180122FA01F0CB40C1F12001DBB293
:100BE000C0B2C01A2CFA01F3D11A914311EAC31111
:100BF000E6D17047704770477047704730B5B0F125
:100C00000A024FEA900E71F100034EEA817EB0EBCA
:100C10000E0061EB91014FEA101E4EEA017E10EBCF
:100C20000E0041EB11114FEA102E4EEA016E10EB4F
:100C30000E0041EB11214FEA104E4EEA014E10EB2F
:100C40000E0041EB1141401841F100014FEAD00084
:100C500040EA41704FEAD10110EB80054FEA810470
:100C600044EA907444EB01046D1944EB0404521BF4
:100C7000A3414FF0000348BF0A3200D530BD401CED
:100C800041F1000130BD09684A0501D540B2704705
:100C9000C905FCD500B2704709684A0501D5C0B244
:100CA0007047C905FCD580B270472DE9F0470D4665
:100CB00099469246044600F124080168880604D546
:100CC000E06921F01001216000E00120A84201DD6F
:100CD000471B00E00027A1697A1902EB0900081AF6
:100CE000A0612078C00602D42046FFF729FC002628
:100CF00008E0D4E901211AF806009047206A401C58
:100D0000761C20624E45F4DB2078C0060AD52046CA
:100D1000FFF716FC06E0D4E9012130209047206A55
:100D2000401C2062381EA7F10107F4DC07E0D4E97B
:100D3000012118F805009047206A401C2062281EF7
:100D4000A5F10105F3DC2046FFF710FC2078000632
:100D500002D50220BDE8F0870120FBE71168026898
:100D6000006A530501D508700AE0D30501D5088053
:100D700006E0130603D5C217C1E9000200E00860CF
:100D80000120704770472DE9FF4F0C461E464FF07B
:100D9000FF378BB0D2E90001DDF860800A908A4607
:100DA000C1F30A5505B93D46002108464FF0000041
:100DB000BAF1000F00F4400005DA00EB80004FF4B8
:100DC000400101EA50004FEA9059B9F1010F00DDEE
:100DD000B9460A9850EA4A000ED044F61050A5F2DF
:100DE000FF3545432F14B8F1000F1ED07542291E60
:100DF0001EDDC9F100021CE0B8F1010F4FF0000048
:100E000001D0302103E0F24305E02154401CB04200
:100E1000FBDB30460022002121540B99C1F80880E9
:100E2000C1E900200FB0BDE8F08FBD1B6D1CDEE7EF
:100E30004A4600DA694206A800F070FC06AB93E867
:100E4000070003AB83E8070050460A9900F037FD1E
:100E50008DE80700A0F500501F3800900398002D82
:100E60000ADD42F21F014A460844002303A9039009
:100E7000684600F0A0FF09E0A0F500504A461F3880
:100E8000002303A90390684600F0AAFF8DE807003D
:100E90000004000C03D04FF0FF30410800E0104682
:100EA000B8F1000F03D00022009215461EE0751E17
:100EB00005D4FFF7A3FE303262556D1EF9D5B34657
:100EC0000122084302D000227F1C04E02078302851
:100ED00001D100227F1E002A099784D01DE0112D28
:100EE00007DAFFF78BFE303262556D1C50EA0102C3
:100EF000F5D1084302D00098C8B10EE00021681E69
:100F000005E0235C625C63542254401E491C81420C
:100F1000F7DBAB46A81B401E0990002004F80B002D
:100F20000B98099AC0F80880C0E9002B7AE71126CF
:100F30004FF0000857E72DE9F04F88460446D21DD0
:100F400022F0070191B0D1E90001CDE90A0103F0D7
:100F500006FA02460B98C00F01D02D2007E020684A
:100F6000810701D52B2002E0202101EAC000032ADD
:100F7000099001D0072A05DB03464146204600F0D0
:100F800077FB0BE12078800601D5E06900E00620C0
:100F9000B8F1650F814606D0B8F1660F18D0B8F1E8
:100FA000670F70D131E00020B9F1110F009001DB23
:100FB000112301E009F101030AAA01A90CA8FFF716
:100FC000E2FEDDE90C70002609F10105834647E0E9
:100FD00001204B4600904FF000470AAA01A90CA837
:100FE000FFF7D1FEDDE90DB00C995D46002610B982
:100FF00009F101000D18B9EB050003D4C0F1FF366B
:1010000009F10105A5EB09002BE0B9F1010F01DAA7
:101010004FF001090020B9F1110F0090484601DDA1
:10102000112300E003460AAA01A90CA8FFF7ABFEB2
:10103000DDE90C704D4600268346207800070AD46F
:10104000AB4500DA5D4601A8012D04DD411911F818
:10105000011C302907D04F4502DA17F1040F04DADA
:10106000012082460FE06D1EEEE7002F02DCED1B33
:101070003E4403E0781CA84200DD7D1CB81B00F153
:10108000010A4FF000472078000703D4AA4501DB8E
:101090004FF0FF3A0021B7F1004F0DF143088DF8F2
:1010A000431024D002202B23002F01DA7F422D236E
:1010B0000A21021EA0F1010000DC5FB197FBF1FCE8
:1010C00097FBF1F201FB1C7C17460CF1300C08F881
:1010D00001CDEEE7A8F1010003702188090501D5D3
:1010E000452100E06521A0F1010800F8011C0998E4
:1010F0000FA9A1EB0807FF1D00B10120411901EB69
:10110000EA70A1693844081A401EA0612078C00620
:1011100002D42046FFF714FA099828B1D4E9012136
:101120009047206A401C20622078C00622D52046C5
:10113000FFF706FA1EE0002E04DBB34502DD01A82E
:10114000805D00E03020D4E901219047206A401CF6
:101150002062761CAAF101005FEA000A0AD100F0C1
:1011600005F9C0680168405CD4E901219047206A14
:10117000401C2062281EA5F10105DCDC07E0D4E953
:10118000012118F8010B9047206A401C2062381E8C
:10119000A7F10107F3DC2046FFF7E8F9032011B0BF
:1011A00041E6000001694A1C02610878704700B5F9
:1011B0008FB0CDE901310021059105497944CDE990
:1011C000031011466846FFF7CFFA0FB000BD0000CC
:1011D000E5FFFFFF0A6802F8010B0A607047D1E9DA
:1011E00000239A4202D2531C0B601070704710B556
:1011F000436913B1AFF3008001E0FFF7C8F90120A4
:1012000010BD127800F124010A7000224A700122F8
:10121000EDE711684FF0FF32E9E70000074B70B5CA
:101220000D467B44FFF7C3FF0446284600F0E8FA6A
:1012300010B14FF0FF3070BD204670BD0BCD0000E7
:101240002DE9FF5F15468A460446DFF8AC80F84476
:101250000027D8E900103E46CDE9001010E03AF82A
:1012600016106A4602A800F0CFFA411C07D0217878
:10127000890603D5E269391891420DD80744761CD6
:101280002078800602D5E069B84205DDAE42E6DB93
:101290003AF816000028E2D1A069C01BA0612046E0
:1012A000FFF74EF9D8E90010CDE90010002017E053
:1012B0003AF818106A4602A800F0A6FAB0F1FF3F0B
:1012C00081460BD000250DF1080B05E0D4E9012182
:1012D0001BF8050090476D1C4D45F7D308F1010040
:1012E000B0428046E4DB206A384420622046FFF7A3
:1012F0003DF9BDE8FF9F00009A80060030B4002150
:1013000000F1240408E002F00705D208303542EA73
:101310004372DB086554491C52EA0305F3D10468A3
:10132000002310A2250707D5A40600D421B1C46963
:1013300001230DA2641EC46130BCFFF7B6BC10B51A
:10134000044621461068FFF7A7FC02462046BDE888
:1013500010400023D2E7D21D22F00701D1E900237B
:10136000CCE700000000000030000000004870479B
:10137000E0B700202DE9F04F04460D46D21D22F0C3
:10138000070089B0D0E900974846394602F0E7FFE8
:101390000246F80F01D02D2307E02068810701D510
:1013A0002B2302E0202101EAC0038DF820300BB18D
:1013B000012000E00020032A824601D0072A04DB36
:1013C0002946204600F054F93FE12078800601D4F8
:1013D0000D2500E0E569C7F30A560D2D49DA002115
:1013E0004FEA175B08464FF00000002F00F4400062
:1013F00007DA00EB80004FF4400100EBD07001EA07
:1014000060008115012901DD4FF0FF3100224FEA14
:10141000850CBCF1180F06D31346ACF118004FF041
:101420008052C24003E04FF4801323FA0CF30CF116
:101430000C0CBCF1200F04D3ACF1200C09FA0CF019
:1014400001E007FA0CF000294FF0004801DD18B95F
:101450000FE00ED140450CD319EB02095F4121B9D1
:10146000404502D19F4329EA0209BBEB175F00D038
:10147000761C2088000502D57B48784402E07A4833
:101480007844193808AA302302F80A30037C0AF19C
:101490000101002E0AF1020A53546A4602DC4FF0A1
:1014A000300101E04FF031014FF001088DF80010DC
:1014B00002D0A6F2FF3603E059EA470100D06B4E96
:1014C000002D02DC2178090704D54FF002082E21F7
:1014D0008DF80110C44600210BE0C7F303433F0120
:1014E000C35C491C6D1E02F80830052908F101088B
:1014F00001DA002DF1DC00210CE000EB1973491C2E
:101500001B786D1E082902F808304FEA091908F106
:10151000010801DA002DF0DC21688B0602D516E007
:10152000A8F10108E04505DD02EB080313F8013CD2
:10153000302BF5D0B8F1000F09DD02EB080313F8EA
:10154000013C2E2B03D1090701D4A8F10108002D7D
:1015500005DD3E2102F808106D1E08F10108407CEF
:10156000002E02F8080008F1010804DA2D20764266
:1015700002F8080002E02B2002F808000A214FF4CC
:101580007A70864208F101080BDB96FBF0F33033EA
:1015900002F8083096FBF0F308F1010800FB13662F
:1015A00001E0642E0CDB642096FBF0F3303302F88C
:1015B000083096FBF0F308F1010800FB136601E028
:1015C0000A2E06DB96FBF1F0303002F8080008F135
:1015D000010896FBF1F001FB1060303002F80800C2
:1015E000A16908F1010808EB050202EB0A00081ADC
:1015F000A0612078C00602D42046FEF7A1FF216A30
:1016000008AE01EB0A00206204E0D4E9012116F8DB
:10161000010B9047BAF1010AF7D22078C00602D533
:101620002046FEF78DFF6E4609E016F8010B3E28B6
:101630000FD0D4E901219047206A401C2062B8F104
:101640000108F2D22046FEF791FF09B00320BDE861
:10165000F08F206A2844206203E0D4E90121302081
:1016600090476D1EEBD3F8E7897E060002FCFFFF72
:101670002DE9F0411F46044603260168072A01F4BC
:10168000006004DB08B116A505E016A503E008B16B
:1016900015A500E015A521F010002060A069C01E6E
:1016A000A0610FB1401EA0612046FEF749FF4FB177
:1016B000D4E9012138469047206A401C2062C01CB2
:1016C000206206E0206AFAE7D4E9012115F8010B4F
:1016D0009047761EF8D22046FEF748FFBDE8F0811D
:1016E0004E414E006E616E00494E4600696E6600C6
:1016F00010B5436913B1AFF3008001E0FFF7A0FD1F
:10170000012010BD128800F1240182840022C284CD
:101710000122EDE711684FF0FF32E9E72DE9F047CC
:10172000814616468AB0354878440DC88DE80D00CC
:1017300032487844801C03AC0DC884E80D0041F6A3
:101740009B300844372190FBF1F290FBF1F5A5F1B5
:10175000800501FB12041B3C02D56442012000E01D
:101760000020DFF898A080460027FA44AAF1BE0ABC
:101770000EE0E0070AD03246684607EB4701012336
:101780000AEB810100F02CFB8DE8070064107F1C40
:10179000002CEED1194F7F44AE3F19E0E80715D079
:1017A00007EB04100DF1180A90E80E008AE80E000D
:1017B000C068F04201D1981908903246012306A969
:1017C00003A800F00DFB03AB83E807006D10641C59
:1017D000002DE3D14FF0010332466946B8F1000F06
:1017E00003A802D000F0E7FA01E000F0F9FAC9E935
:1017F0000001C9F808200AB0BDE8F0876C7C06003B
:10180000007B00F08000704770B516460C46054618
:1018100000F044F8036893F80101012806D0FF2C7A
:101820000FD8185D68B101202C7070BDD3F8070186
:101830003246214603F2071303442846BDE87040B0
:1018400018474FF0FF3070BD00487047C0B7002008
:101850007546FFF7F9FFAE4605006946534620F08E
:101860000700854618B020B5FEF780FDBDE8204092
:101870004FF000064FF000074FF000084FF0000B4C
:1018800021F00701AC46ACE8C009ACE8C009ACE8FF
:10189000C009ACE8C0098D467047000010B5FFF7DD
:1018A00065FD001D10BD00BF790E020010B5044695
:1018B000AFF300802046BDE81040FEF7F6BC5FEABB
:1018C000400C08BF91F0000F4FEA8C234FEAC12271
:1018D00043EA51514FEA1C5018BF00F5F0404FEA5F
:1018E000300018BF41F000415FEA6C5C00F02980D5
:1018F000BCF1FF3F08BF40F080407047130C06BFAB
:1019000012044FF0100C4FF0000C130E04BF120223
:101910000CF1080C130F04BF12010CF1040C930F0F
:1019200004BF92000CF1020CD30F04BF52000CF163
:10193000010C11464FF00002A0F11F00A0EB0C00BB
:10194000704711F0004F08BF704731F000413FF47D
:10195000D5AF0B0C06BF09044FF0100C4FF0000C74
:101960000B0E04BF09020CF1080C0B0F04BF090198
:101970000CF1040C8B0F04BF89000CF1020CCB0F8F
:1019800004BF49000CF1010CCCF12003A0EB0C00CA
:1019900022FA03F302FA0CF241EA030100F101001A
:1019A000704720F07F4C80EA030023F07F47ACEBC8
:1019B000070303F57C5300F0004003F1FF032DE91A
:1019C00080494FEA154B09B44FEA144325EA0B4E00
:1019D00024EA03480FF2042606EB132749083E7851
:1019E0005FEA320203FB0667C7F5000707FB06F64E
:1019F0004FEA54374FEAD64606F1020607FB066C5B
:101A0000CCF1005C4FEA1C472CEA074C07FB06F4BC
:101A10000CFB06F504EB15464FEA961634BF002082
:101A20004FF000404FEAD13706FB07FC4FEA1C4C51
:101A30000CFB0BF7D21B03FB0CF761EB07010CFB54
:101A40000EF7B0EB074072EB17420CFB08F734BF00
:101A5000A2EB0742B2EB074261EB17414FEA0C449D
:101A60004FEA910706FB07FC4FEA1C4C0CFB0BF7F7
:101A7000B0EBC74072EB573203FB0CF734BFA2EB5D
:101A8000C742B2EBC74261EB57310CFB0EF7B0EB2C
:101A9000C70072EB57720CFB08F734BFA2EBC7020A
:101AA000B2EBC70261EB5771039F4FEA816141EAD4
:101AB000921104EBCC044FEAD1374FEA826206FB65
:101AC00007FC42EA90124FEA80604FEA1C4C0CFB84
:101AD0000BF7D21B03FB0CF761EB07010CFB0EF7B6
:101AE000B0EB074072EB17420CFB08F734BFA2EBD8
:101AF0000742B2EB074261EB17414FEA8C554FEAC0
:101B0000910704EB9C2406FB07FC4FEA1C4C0CFBE2
:101B10000BF7B0EBC74072EB573203FB0CF734BF47
:101B2000A2EBC742B2EBC74261EB57310CFB0EF799
:101B3000B0EBC70072EB57720CFB08F734BFA2EB97
:101B4000C702B2EBC70261EB577115EB4C254FEAA8
:101B5000816141EA92114FEA82624FEAD13742EA4B
:101B6000901206FB07FC44F100044FEA80604FEA44
:101B70001C4C0CFB0BF7D21B03FB0CF761EB0701B2
:101B80000CFB0EF7B0EB074072EB17420CFB08F7AB
:101B900034BFA2EB0742B2EB074261EB174115EBF2
:101BA0001C154FEA813141EA92414FEA823242EA02
:101BB00090424FEA80304FEA0C7644F1000448EA44
:101BC00003434EEA0B484FF0000EB2EB080C71EBEA
:101BD000030724BF624639464EEB0E0E4FF0000B52
:101BE0000018524149414BEB0B0BB2EB080C71EB67
:101BF00003077BF1000B24BF624639464EEB0E0E05
:101C00004FF0000B0018524149414BEB0B0BB2EB6C
:101C1000080C71EB03077BF1000B24BF62463946C9
:101C20004EEB0E0E51EA020718BF46F0010616EB06
:101C30000E7655F1000254F1000103D5BDE889018B
:101C4000BDE80088BDE88901BDE80048B6195241E9
:101C500041EB0101A3F10103704780807F7E7D7C11
:101C60007B7A7978777676757473727171706F6E2E
:101C70006E6D6C6C6B6A6A696868676666656464D9
:101C8000636362616160605F5F5E5E5D5D5C5C5B63
:101C90005B5A5A59595858575756565555555454D2
:101CA000535352525251515050504F4F4F4E4E4D30
:101CB0004D4D4C4C4C4B4B4B4A4A4A49494948487C
:101CC00048474747474646464545454444444443BC
:101CD00043434342424242414141002B9C4630D45F
:101CE00077002BD01CB54FEA370703B44FF0100034
:101CF0004FF01001BAF1000F06D0BCF1000FDCBFAD
:101D000040F0080040F008014FF000000FBCBDE8B3
:101D100010400BF1010BBBF1010F08BF5FEA170781
:101D200022BF12F1010211F101014FF0004143F114
:101D3000000300F0004043EA00007047F9D3570861
:101D4000D0E746EA064613F1400F4FEA16461FDD7C
:101D500013F1200FDFBF16430A46002120335B42F8
:101D6000BED0C3F1200746EA064602FA07F74FEA5B
:101D7000164646EA0706C3F1200722FA03F201FAE3
:101D800007F721FA03F14FF0000342EA0702A7E741
:101D900046EA020646EA06464FEA164646EA0106C3
:101DA000BCBF46EA0646360C4FF000034FF0000277
:101DB0004FF0000194E72DE9804C9A46934670B4A9
:101DC00091E8380007C831EA400C48BF34EA430CB8
:101DD00003D5FFF7E6FDFFF780FFF0BCBDE8008C00
:101DE0002DE9804C9A46934670B491E8380007C8B4
:101DF00010F0804F08BF13F0804F03D100F005F8BA
:101E0000FFF76BFFF0BCBDE8008C20F07F4780EA55
:101E1000030023F07F4C07EB0C03A3F57C5300F089
:101E20000040A3F1FE0392F0000F00F0B38095F0A4
:101E3000000F00F077802DE901494FEA11404FEA89
:101E4000144621EA004800FB06FC24EA064708FB8A
:101E500006F607FB08F800FB07F718EB06484CEB03
:101E6000164C4FEA124B18EB07484FEA15464CEB5D
:101E7000174022EA0B4E0BFB06FC25EA06470EFB39
:101E800006F607FB0EFE0BFB07F71EEB064E4CEBB0
:101E9000164C4FF000061EEB074E4CEB174B18EBA1
:101EA0000B0840F1000018EB0E0B58EB000840F156
:101EB00000008F1A4FF000013CBFC943661B14BFDE
:101EC000B5EB040C00213CBFC943F61B4FEA174495
:101ED0004EEA8E0E27EA04454FEA1C4704FB0762D0
:101EE0002CEA074C05FB07F70CFB05F604FB0CFC82
:101EF00016EB074642EB174216EB0C4642EB1C4230
:101F00001BEB060658EB0202414146EA9E0601D54C
:101F1000BDE80189B619524141EB0101A3F101036A
:101F2000BDE801894FEA14454FEA114724EA054606
:101F300021EA074C05FB07F406FB07F70CFB06F14B
:101F400005FB0CFC11EB074144EB17444FEA124729
:101F500011EB0C4144EB1C4422EA074C05FB07F251
:101F600006FB07F70CFB06F605FB0CFC16EB074619
:101F700042EB174216EB0C4642EB1C456A1854F133
:101F8000000148BF7047B619524141EB0101A3F16E
:101F90000103704795F0000F37D04FEA11424FEA26
:101FA000144721EA024624EA074C02FB07F106FB2C
:101FB00007F70CFB06F402FB0CFC14EB074441EBA7
:101FC00017414FEA154714EB0C4441EB1C4125EA3D
:101FD000074C02FB07F506FB07F70CFB06F602FBB6
:101FE0000CFC16EB074645EB174516EB0C4645EB8C
:101FF0001C42121951F1000148BF7047B6195241F5
:1020000041EB0101A3F1010370474FEA14454FEA88
:10201000114724EA054621EA074C05FB07F106FBB8
:1020200007F70CFB06F24FF0000605FB0CFC12EB69
:10203000074241EB174112EB0C4251EB1C4148BFE8
:102040007047921841EB0101A3F101037047FEE7CD
:102050007047000010B54FF40044204600F0B8F877
:102060000148046010BD0000140401402DE9F05F38
:1020700090F821100024022903D004218163012457
:1020800085E001680A6822F00E020A6001680A68A9
:1020900022F001020A603F4E3E4FB215DFF8F4C055
:1020A000DFF8F090DFF8ECA0DFF8E8B0DFF8E4E06C
:1020B0000168783F13011502ACF1640CA9F15009D5
:1020C000AAF13C0AABF1280BAEF1140E4FF48018C4
:1020D000B14227D9B9420ED0614512D049451DD031
:1020E000514518D0594518D0714501D1424615E0E7
:1020F000294EB14201D1012210E0274E1436B142DF
:1021000001D110220AE0244E2836B14206D0224ADC
:102110003C32914201D11A4600E02A461E49091F6D
:102120000A602BE0B94213D0614517D0494522D04F
:1021300051451DD059451DD0714501D142461AE087
:10214000B14202D14FF0807215E0134EB14201D17D
:10215000012210E0104E1436B14201D110220AE0E3
:102160000D4E2836B14206D00B4A3C32914201D185
:102170001A4600E02A46074980394A60012180F862
:102180002110002180F82010416B01B188472046C2
:10219000BDE8F09F800002400804024070B504468C
:1021A00000F028F90546601C02D004480078044479
:1021B00000F020F9401BA042FAD370BD1C000020A3
:1021C00002480168491C0160704700004800002077
:1021D000044910B50A68024202D00860FFF7F0FF18
:1021E00010BD0000140401402DE9F84FDFF8C8913C
:1021F000002409F1040A0AF1040B23460F270BF10E
:10220000040ED1E00125A54006EA0502AA4276D1D6
:10221000DFF8A8C14E68A6EB0C0866452BD00DDC94
:10222000032E34D005DC36B3012E19D0022E2FD167
:102230001BE0112E16D0122E2AD119E0B8F5881FF6
:1022400019D006DCB8F5803F15D0B8F5801F1FD136
:1022500011E0B8F5001F0ED0B8F5041F18D10AE040
:10226000CB6815E0CB681B1D12E0CB6808330FE08C
:10227000CB680C330CE08B682BB1012B4FF00803BB
:1022800003D0456104E0042302E0056100E000237F
:10229000FF2A01D8064601E000F104064FEA840552
:1022A00001D9A5F12005D6F8008007FA05FC28EA37
:1022B0000C0803FA05F548EA0508C6F800804D68E1
:1022C000ED0070D53E4DAE6946F00106AE61AD69D8
:1022D00024F0030605F0010500953A4D06EB050CC8
:1022E000DCF80850A607360F07FA06F825EA0805B5
:1022F000DFF8D480404503D14FF0000825E052E0DC
:10230000DFF8C880404502D14FF001081DE0DFF83A
:10231000C080404502D14FF0020816E0DFF8B480DB
:10232000404502D14FF003080FE0DFF8AC80404594
:1023300002D14FF0040808E0DFF8A080404502D148
:102340004FF0050801E04FF0060808FA06F848EAE1
:102350000508CCF808804D68D9F80060ED034D46BB
:1023600001D5164300E096432E604D68DAF8006010
:10237000AD03554601D5164300E096432E604D68E7
:10238000DBF80060ED025D4601D5164300E09643A0
:102390002E604D68DEF80060AD02754601D516432B
:1023A00000E096432E60641C0A681646E2407FF403
:1023B00029AFBDE8F88F00000004014000001110B3
:1023C000001002400000014000080140000C0140E4
:1023D000001001400014014000180140001C0140A1
:1023E0008068084000D0012070470AB10161704741
:1023F0000904FBE701488068704700001C000020CA
:102400000248816802781144816070471C000020F6
:10241000074810B5016841F010010160052000F087
:1024200057F80F2000F006F800F024F8002010BD47
:102430000020024070B50D4D04464FF47A712878A3
:10244000B1FBF0F00A490968B1FBF0F000F05AFE68
:1024500048B9102C07D200222146501E00F018F86F
:1024600000206C6070BD012070BD00001C000020C9
:10247000000000207047002809DB00F01F02012146
:1024800091404009800000F1E020C0F80011704741
:10249000F0B40E4B1B680C46C3F30223C3F10705CF
:1024A000042D00D90425191D072901D2002300E0BD
:1024B000DB1E012606FA05F1491E214099409E4087
:1024C000761E16403143F0BC01F05DBF0CED00E01C
:1024D000064900F0070208684FF6FF03184040EA7B
:1024E0000220034A10430860704700000CED00E032
:1024F0000000FA052DE9F0470F46050061D0434E74
:10250000306800F00700B84209D2306820F00700B8
:1025100038433060306800F00700B84251D1286875
:102520003B4C810712D5400703D5606840F4E0605A
:1025300060602878000703D5606840F460506060F0
:102540006068A96820F0F000084360602878C00740
:1025500028D06868012810D02168022810D0890787
:1025600000292EDA616821F0030101436160FFF761
:1025700041FF804641F288390DE021688903EFE789
:102580008901EDE7FFF736FFA0EB0801494502D9C5
:102590000320BDE8F0876068696800F00C00B0EBCC
:1025A000810FEFD1306800F00700B8420BD93068D6
:1025B00020F0070038433060306800F00700B84270
:1025C00001D00120E5E72878400705D56068E96873
:1025D00020F4E060084360602878000706D5606852
:1025E000296920F4605040EAC100606000F038F8CA
:1025F0006168084AC1F30311515CC840064908608C
:1026000006480068FFF716FF0020C2E700200240DE
:10261000001002405C300208000000202000002072
:102620000448054900684968044AC1F30221515C25
:10263000C840704700000020001002406C300208C3
:102640000448054900684968044AC1F3C221515C45
:10265000C840704700000020001002406C300208A3
:1026600012A185B00FC98DE80F0014A0144A0068AC
:1026700004905168134801F00C03042B10D0082B70
:102680000ED1C1F38343C9031DF803000AD5516875
:1026900004AAC1F34041515C0A4A5043B0FBF1F037
:1026A00005B0704708494843FAE7000002030405F3
:1026B000060708090A0B0C0D0E0F1010010200008E
:1026C0000010024000127A0000093D002DE9F84F89
:1026D000040070D02078C04DC00749D06868C0F3AE
:1026E0008100012807D06868C0F38100022809D161
:1026F0006868C00306D52868800339D5606800285B
:10270000E7D035E06068B0F5803F0BD010B1B0F590
:10271000A02F11D0286820F480302860286820F489
:10272000802002E0286840F480302860606890B122
:10273000FFF760FE06460AE0286840F48020286023
:10274000F0E700BFFFF756FE801B642873D82868A7
:102750008003F7D50CE0FFF74DFE064605E000BF0D
:10276000FFF748FE801B6428F0D828688003F7D460
:1027700020789A4E80074FF001094FF0000839D5B4
:10278000686810F00C0F07D06868C0F38100022859
:1027900009D16868C00306D42868800714D5206969
:1027A000012808D110E02069B0B1C6F80090FFF709
:1027B00021FE074605E00AE1FFF71CFEC01B0228C8
:1027C000C4D828688007F7D52868616920F0F80028
:1027D00040EAC10028600DE0C6F80080FFF70AFE5D
:1027E000074604E0FFF706FEC01B022823D828682E
:1027F0008007F7D4207800072CD57948A169D9B192
:10280000C0F80090FFF7F6FD074604E0FFF7F2FD81
:10281000C01B02280FD8686A8007F7D571484FF4AB
:10282000FA510068B0FBF1F0009000BF0098411E23
:102830000091FAD20EE080E0C0F80080FFF7DAFDE8
:10284000074604E0FFF7D6FDC01B022875D8686A6A
:102850008007F7D42078400760D5E8690027C000DA
:1028600008D4E86940F08050E861E869012700F089
:10287000805000905C480168C90513D40168834604
:1028800041F480710160FFF7B5FD824606E000BFAC
:10289000FFF7B0FDA0EB0A0064284ED8DBF800007B
:1028A000C005F5D5E06801280AD008B1052813D085
:1028B000286A20F001002862286A20F0040002E063
:1028C000286A40F001002862E06841F2883B98B134
:1028D000FFF790FD82460BE0286A40F00400286272
:1028E000EEE700BFFFF786FDA0EB0A0159455AD875
:1028F000286A8007F6D50CE0FFF77CFD824605E0EC
:10290000FFF778FDA0EB0A0159454CD8286A8007EB
:10291000F6D41FB1E86920F08050E861E06988B31F
:102920006968C1F38101022944D00228C6F8608099
:1029300004D0FFF75FFD044638E034E0FFF75AFDAE
:10294000074604E0FFF756FDC01B02282BD8286875
:102950008001F7D4206AB0F5803F05D16868A1688E
:1029600020F4003008436860D4E90801084369682E
:1029700021F4741108436860C6F86090FFF73AFDCF
:10298000044606E025E000BFFFF734FD001B0228E7
:1029900009D828688001F7D51BE000BFFFF72AFDA2
:1029A000001B022802D90320BDE8F88F28688001A7
:1029B000F4D40EE00128F7D06868226A00F4803170
:1029C000914204D1616A00F47010884201D0012064
:1029D000EAE70020E8E70000001002400000424261
:1029E000800442420000002000700040F0B5426EBA
:1029F000920F0A70426EC2F383624A70426EC2F353
:102A000001628A70426E120CCA70B0F86420120A19
:102A10000A7190F864204A71826E120DCA80826E2B
:102A2000C2F303420A72B0F86820C2F3C0324A729D
:102A3000B0F86820C2F380328A72B0F86820C2F31E
:102A40004032CA72B0F86820C2F300320A7300261E
:102A50004E73426C4FF40075012462B1012A3AD0E2
:102A6000026847499163816B41F08051816380F82E
:102A700034400120F0BDB0F86820C36E9205120DFD
:102A800042EA93720A61C26EC2F3C2620A75C26EF2
:102A9000C2F302624A75C26EC2F342528A75C26EB6
:102AA000C2F38242CA75C26EC2F3C2320A760A69A2
:102AB000521C42650B7E03F007039B1C9A40426543
:102AC0000B7A03F00F0704FA07F383655B0A5A4396
:102AD000C0E917250EE090F86820C36E9206920AAE
:102AE00042EA13420A610A69521C92024265C0E935
:102AF0001652056630F86C2FC2F3803201F8192F98
:102B00000288C2F3C6124A70027802F07F028A700D
:102B10004268D20FCA704268C2F341720A714268B9
:102B2000C2F382624A714268C2F383528A71426878
:102B3000C2F34052CA710E724268C2F300424A7236
:102B40008288C2F3C0328A728288C2F38032CA722B
:102B50008288C2F340320A738288C2F300324A7319
:102B60008288C2F381228A738288C2F30122CA73E7
:102B70000079C0F3460008744C740020F0BD0000DA
:102B8000FF05400070B50446B0F850000025010470
:102B9000206801F09AF818B1A16B0143A16304E029
:102BA0000021206800F036FF0546C5F3432070BDC4
:102BB00070B504000ED094F83400002518B92577BC
:102BC000204600F03BF8032084F83400204600F053
:102BD0000BF808B1012070BDA5632563012084F8BE
:102BE0003400002070BD0000FEB5002504467620AC
:102BF0000095CDE9015029460B460A46206800F0B1
:102C00000CFF08B10120FEBD0B4E46F8A05F206806
:102C100000F015FF01253560204601F069FA20B962
:102C2000204601F0EDF90028EDD084F83450A16B76
:102C30000143A163E6E700000000304210B50068E0
:102C4000354986B0884264D13448416941F4806195
:102C50004161416901F480610491816941F0100191
:102C60008161816901F010010491816941F01001D5
:102C70008161816901F010010491816941F01001C5
:102C80008161816901F010010491816941F01001B5
:102C90008161816901F010010491816941F01001A5
:102CA0008161816901F010010491816941F0200185
:102CB000816180691A4C00F0200004904FF480700C
:102CC00000900220019001200290032003906946A9
:102CD0002046FFF789FA6015009069462046FFF705
:102CE00083FA2015009069462046FFF77DFAE0142C
:102CF000009069462046FFF777FAA01400906946D5
:102D00002046FFF771FA0420009069460548FFF756
:102D10006BFA06B010BD00000080014000100240B8
:102D200000100140001401402DE9F04F87B09B4690
:102D300016460D460446FFF75DFB00903DB194F842
:102D40003400012807D0A06B40F000500DE0A06BCC
:102D500040F0006009E00027A763E16D06EB0B007F
:102D6000884204D9A06B40F00070A06395E0032076
:102D700084F834002068C762606C012800D07602B5
:102D80004FF40071206800F0ADFEDFF890A1012142
:102D900040B12368C3F838A0A26B0243A26384F851
:102DA00034107AE04FF0FF3001904FEA4B20029050
:102DB000902003900220CDE9040706918846B94689
:102DC00001A9206800F010FEBBF1010F06D9022016
:102DD00020633146206800F001FF05E0C4F8308030
:102DE0003146206800F013FF30B12268C2F838A0E5
:102DF000A16B0143A1634CE0029E1EE0406B000406
:102E000013D596B10027206800F021FE05F8010BCC
:102E1000010A05F8011B010C05F8021B000E361F04
:102E20007F1C05F8010C082FEDD3FFF7E3FA00999A
:102E3000411A109881421DD2E0B12068426B40F2E5
:102E40002A310A42DAD0416BC90509D5BBF1010F1D
:102E500006D9616C032903D000F068FF0028C4D1B3
:102E60002068416B09071AD5C0F838A0A06B40F064
:102E7000080051E02168C1F838A0A06B40F0004084
:102E8000A06384F83480C4F83090032007B0BDE814
:102E9000F08F84F83480C4F830900120F6E7416B5D
:102EA000890705D5C0F838A0A06B40F0020033E0D8
:102EB000416B89061CD5C0F838A0A06B40F02000FB
:102EC0002AE000BF00F0C3FD05F8010B010A05F878
:102ED000011B010C05F8021B000E05F8010C361F42
:102EE000FFF788FA0099411A109881420ED268B112
:102EF0002068416B890201D5002EE3D1216840F2A0
:102F00003A50886384F834800020BFE72168C1F814
:102F100038A0A06B40F00040A063BAE7FF05400076
:102F20002DE9FF4F8DB016460D460446FFF762FAB5
:102F30000B903DB194F83400012807D0A06B40F00D
:102F400000500DE0A06B40F0006009E00027A7638F
:102F50001098E16D3044884204D9A06B40F00070B5
:102F6000A0638BE0032084F834002068C762606CA3
:102F7000012800D076024FF40071206800F0B2FD05
:102F8000DFF864B1012140B12368C3F838B0A26B07
:102F90000243A26384F8341070E04FF0FF300390D6
:102FA00010988946400204909020CDE90507CDE9AC
:102FB0000771BA4603A9206800F016FD1098012891
:102FC00006D9202020633146206800F0C9FE05E0C4
:102FD000102020633146206800F0DBFE5FEA000825
:102FE00006D02168C1F838B0A06B40EA080071E053
:102FF000049E27E0406B40041CD5DEB15FF0000763
:1030000015F8010B009015F8011B361F40EA01204E
:10301000009015F8021B40EA0140009015F8011CD1
:1030200040EA016000906946206800F023FD7F1CA3
:10303000082FE5D3FFF7DEF90B99411A1A98814260
:1030400020D2F8B12068416B40F21A321142D1D03F
:10305000416BC90523D51099012920D9616C032939
:103060001DD000F063FED0B12268C2F838B0A16B69
:103070000143A16384F83490C4F830A0012011B05A
:10308000BDE8F08F2168C1F838B0A06B40EA0800B5
:10309000A06384F83490C4F830A00320EFE72068E0
:1030A000416B090705D5C0F838B0A06B40F00800A7
:1030B00010E0416B890705D5C0F838B0A06B40F02F
:1030C000020007E0416BC90606D5C0F838B0A06B16
:1030D00040F01000A063CDE740F23A51816384F8DC
:1030E00034900020CBE70000FF0540004FF0E021C6
:1030F0000428086903D020F004000861704740F0FC
:103100000400FAE710B5401EB0F1807F01D3012022
:1031100010BD4FF0E02460610F21601701F033F91A
:103120000020A06107202061002010BD704770477B
:10313000704770B50446006801694FF00005C94347
:10314000890715D4C168C943890711D4E91E0161F3
:1031500001202077206880698007204602D0FFF791
:10316000E7FF04E000F098F8204600F096F8257795
:1031700020680169C943490717D4C168C943490791
:1031800013D46FF004010161022020772068806968
:1031900010F4407F204602D0FFF7CAFF04E000F0A1
:1031A0007BF8204600F079F8257720680169C9434B
:1031B000090716D4C168C943090712D46FF0080182
:1031C0000161042020772068C0698007204602D072
:1031D000FFF7AEFF04E000F05FF8204600F05DF876
:1031E000257720680169C943C90617D4C168C94356
:1031F000C90613D46FF01001016108202077206800
:10320000C06910F4407F204602D0FFF791FF04E030
:1032100000F042F8204600F040F825772068016968
:10322000C943C90708D1C168C943C90704D1891E68
:103230000161204600F032F820680169C94309069F
:1032400009D4C168C943090605D46FF08001016142
:103250002046FFF76BFF20680169C943490609D47E
:10326000C168C943490605D46FF040010161204699
:1032700000F015F820680169C94389060BD4C168BC
:10328000C943890607D46FF0200101612046BDE8DB
:103290007040FFF74CBF70BD704770477047704774
:1032A0007047000070B5026804461068D168536921
:1032B00010F00F0F52D003F0010501F490762E4369
:1032C0005FD0C20705D0CA0503D5E26B42F0010208
:1032D000E263420705D5DA0703D0E26B42F002024F
:1032E000E263820705D5DA0703D0E26B42F00402FD
:1032F000E263020707D501F020022A4303D0E26B04
:1033000042F00802E263E26B002A33D0800604D563
:10331000880602D5204600F06FFF20684069E16B07
:10332000C0F38010090700D428B3204600F056FFF0
:103330002068416949061AD5416921F0400141617F
:10334000606BA0B12D494163606BFEF78FFE0028D2
:1033500010D0606B416BBDE870400847830610D504
:103360008B060ED52046BDE8704000F045BF2046D4
:10337000FFF796FF70BD2046FFF792FF0020E06345
:1033800070BD03062BD50B0629D594F839002128EA
:10339000F6D1A068B0F5805F01D12069B0B1206A94
:1033A000411C2162216800784860E08C401E0004C6
:1033B000000CE084E4D12068C16821F08001C16084
:1033C0002068C16841F04001C16070BD206A00887A
:1033D000C0F308005060206A801C2062E5E74006C8
:1033E000F3D54806F1D5D168204621F04001D160DF
:1033F000202184F8391000F01DF970BDCD4100087E
:1034000070B5040004D094F83900002510B106E02E
:10341000012070BD84F83850204600F023F82420A5
:1034200084F839002068C16821F40051C160204649
:1034300000F028FF2068016921F4904101612068B3
:10344000416921F02A0141612068C16841F40051BD
:10345000C160E563202084F8390084F83A00002038
:1034600070BD000010B500681E4986B0884236D194
:103470001D48816941F004018161816901F0040105
:103480000491816941F004018161816901F00401C5
:103490000491816941F4804181618069134C00F499
:1034A000804004904FF400700090022001900120B1
:1034B00002900320039069462046FEF795FE2015F2
:1034C00000900020019069462046FEF78DFE2520E1
:1034D000FEF7D1FF032211462520FEF7D9FF06B0E3
:1034E00010BD0000003801400010024000080140FB
:1034F00090F83A30202B22D1F9B1F2B190F838305F
:10350000012B1CD081628285C2850021C1632222E9
:1035100080F83A2080F838100168CA6842F4807256
:10352000CA6001684A6942F001024A610068C168E4
:1035300041F02001C1600020704701207047022047
:103540007047000010B50068304988425AD13048B1
:103550003049002304780A683A2C01D0002A52DD51
:103560002D488454521C0A60152A4BD10B60817877
:103570004279303901EB4103C3EBC11102EBC102C7
:10358000C17864235943037903EB830301EB4301BF
:103590001144224AA1F5A051D0391160C179027AB3
:1035A000303901EB81036FF02F0101EB43031A4423
:1035B0001B4B1A60827AC37A303A02EB820201EB2B
:1035C00042021A44174B1A60427B837B303A02EB6B
:1035D000820201EB42021A44134B1A60027C437CC4
:1035E000303A02EB820201EB42021A440F4B1A609E
:1035F000027DC07C303800EB800001EB40000C49BC
:103600001044086010BD0B6010BD00000038014080
:10361000180000204C020020F40200206C01002061
:103620007001002074010020780100207C0100203E
:10363000800100207047FEE72DE9F04104461D4659
:1036400016460F462A2000F089F9204600F07CF942
:10365000304600F079F92B2000F080F9384600F070
:1036600073F9284600F070F9BDE8F0412C2000F015
:1036700075B92DE9F041141A5F1A641C7F1C0025EE
:10368000A4B2BFB2069EFFF7D7FF7C4304E03088A8
:1036900000F05AF96D1CB61CAC42F8D8BDE8F081B8
:1036A00070B53E4886B0816941F008018161816949
:1036B00001F008010491816941F00801816181698B
:1036C00001F008010491816941F00801816181697B
:1036D00001F008010491816941F00801816181696B
:1036E00001F008010491816941F00801816181695B
:1036F00001F008010491816941F00801816180694C
:103700004FF4007400F0080004900120CDE900405F
:1037100002900320224E039069463046FEF764FD76
:103720006510694630460095FEF75EFD80200090EA
:1037300069463046FEF758FD402000906946304605
:10374000FEF752FD2020009069463046FEF74CFD02
:103750001020009069463046FEF746FD01222146C2
:103760003046FEF742FE012229463046FEF73DFE76
:10377000012280213046FEF738FE012240213046EA
:10378000FEF733FE012220213046FEF72EFE0122F5
:1037900010213046FEF729FE06B070BD0010024031
:1037A000000C014010B5FFF77BFF664C0022802122
:1037B0002046FEF71AFE642004F052F80122802110
:1037C0002046FEF712FE642004F04AF80122102180
:1037D0002046FEF70AFE642004F042F8112000F0B3
:1037E000BDF8782004F03CF8362000F0B7F87020DF
:1037F00000F0C8F83A2000F0B1F8052000F0C2F857
:10380000B22000F0ABF80C2000F0BCF80C2000F067
:10381000B9F8002000F0B6F8332000F0B3F83320F8
:1038200000F0B0F8B72000F099F8352000F0AAF8C1
:10383000BB2000F093F8322000F0A4F8C22000F082
:103840008DF8012000F09EF8C32000F087F81520C5
:1038500000F098F8C42000F081F8202000F092F8E1
:10386000C62000F07BF80F2000F08CF8D02000F08C
:1038700075F8A42000F086F8A12000F083F8E0207D
:1038800000F06CF8D02000F07DF8082000F07AF805
:103890000E2000F077F8092000F074F8092000F0FD
:1038A00071F8052000F06EF8312000F06BF833203D
:1038B00000F068F8482000F065F8172000F062F882
:1038C000142000F05FF8152000F05CF8312000F0C3
:1038D00059F8342000F056F8E12000F03FF8D020ED
:1038E00000F050F8082000F04DF80E2000F04AF8E3
:1038F000092000F047F8092000F044F8152000F0F6
:1039000041F8312000F03EF8332000F03BF8482029
:1039100000F038F8172000F035F8142000F032F8E5
:10392000152000F02FF8312000F02CF8342000F0A2
:1039300029F8212000F012F8BDE81040292000F0FD
:103940000DB80000000C014010B50446000A00F05C
:1039500019F8E0B2BDE8104000F014B870B5084C9A
:103960000546002240212046FEF73FFD284600F094
:1039700009F82046BDE8704001224021FEF735BD20
:10398000000C01402DE9F041154E05460022202192
:103990003046FEF72AFD00244FF480787715002288
:1039A00039463046FEF721FD280601D5012200E008
:1039B000002241463046FEF718FD012239463046C6
:1039C000FEF713FD6806641C050EE4B2082CE6D36E
:1039D0003046BDE8F04101222021FEF706BD00007F
:1039E000000C0140FEE770470A6842624A68826242
:1039F000D1E902231A43D1E904310B43C16A1A43C6
:103A000021F0F7011143C16200207047006800F007
:103A10000300704708444069704770B50DF1100C01
:103A200011439CE870002343194329434268314302
:103A300047F6FF639A430A434260002070BD10B509
:103A4000032101600220FEF7A9FB002010BDD0F881
:103A5000800070470A688260D1E901231A43D1E9E6
:103A600003310B43C1681A436FF30B011143C1606B
:103A7000002070470968C0F880100020704710B51A
:103A800086B004463720CDE9001040200290002087
:103A900003904FF48060049069462046FFF7DAFFF8
:103AA00041F288323721204600F08CF906B010BD73
:103AB00010B504460A4886B001432920CDE900101C
:103AC00040200290002003904FF4806004906946EB
:103AD0002046FFF7BFFF204600F02CFA06B010BDCD
:103AE0000000108010B586B004461020CDE900100B
:103AF00040200290002003904FF4806004906946BB
:103B00002046FFF7A7FF41F288321021204600F03F
:103B100059F906B010BD000030B585B00024054647
:103B2000009401944FF480600294CDE9034069460B
:103B30002846FFF78FFF0B484FF4FA510068B0FB9F
:103B4000F1F041F288314843401E03D24FF000406B
:103B500005B030BD696B0906F6D5C520A8632046BF
:103B6000F6E700000000002070B585B004464FF471
:103B7000D570009001A908204025002681E8610049
:103B8000C001049069462046FFF764FF12484FF4D5
:103B9000FA510068B0FBF1F041F288314843401E11
:103BA00003D24FF0004005B070BD616B11F0450FBE
:103BB000F5D00905F3D4606B400701D5042003E07C
:103BC000606BC00702D00120A063ECE7606B400689
:103BD00000D5A5633046E6E70000002010B586B0AA
:103BE00004461220CDE900104020029000200390EE
:103BF0004FF48060049069462046FFF72BFF41F2A6
:103C000088321221204600F0DDF806B010BD10B554
:103C100086B004461120CDE900104020029000201B
:103C200003904FF48060049069462046FFF712FF2E
:103C300041F288321121204600F0C4F806B010BDD0
:103C400010B586B004460720CDE900204020029040
:103C5000002003904FF48060049069462046FFF7EF
:103C6000F9FE41F288320721204600F0ABF806B099
:103C700010BD10B586B0044600210220CDE9001029
:103C8000C020CDE902014FF48060049069462046CF
:103C9000FFF7E0FE204600F025F906B010BD10B594
:103CA00086B004460920CDE90010C0200290002013
:103CB00003904FF48060049069462046FFF7CAFEE7
:103CC000204600F00FF906B010BD10B586B00446CE
:103CD0000D20CDE9001040200290002003904FF409
:103CE0008060049069462046FFF7B4FE41F28832B6
:103CF0000D21204600F066F806B010BD30B585B045
:103D00000C46054600210320CDE900104020CDE9F6
:103D100002010001049069462846FFF79BFE2246F7
:103D20000321284600F028F905B030BD10B586B053
:103D3000044600210C20CDE900104020CDE902010D
:103D40000001049069462046FFF784FE034A0C21D7
:103D5000204600F037F806B010BD000000E1F50580
:103D600010B586B004461920CDE90010402002901D
:103D7000002003904FF48060049069462046FFF7CE
:103D800069FE41F288321921204600F01BF806B086
:103D900010BD10B586B004461820CDE900104020B3
:103DA0000290002003904FF4806004906946204602
:103DB000FFF750FE41F288321821204600F002F849
:103DC00006B010BD454B10B51B684FF4FA54B3FB59
:103DD000F4F353435B1E02D24FF0004010BD426B20
:103DE00012F0450FF6D01205F4D4426B520703D5FA
:103DF00004218163084610BD426BD20702D0012125
:103E0000816305E0C52282630269D2B28A4201D091
:103E1000012010BD0021FFF7FDFD3149084201D10D
:103E2000002010BD002802DA4FF0007010BD4100E4
:103E300001D5402010BD810001D5802010BDC100FA
:103E400002D54FF4807010BD010102D54FF400700F
:103E500010BD410102D54FF4806010BDC10102D5F3
:103E60004FF4006010BD010202D54FF4805010BD28
:103E7000410202D54FF4005010BD810202D54FF42B
:103E8000804010BDC10202D54FF4004010BD410377
:103E900002D54FF4003010BD810302D54FF48020CD
:103EA00010BDC10302D54FF4002010BD010402D59E
:103EB0004FF4801010BD410402D54FF4001010BD26
:103EC000810402D54FF4800010BD000702D54FF4E5
:103ED000000010BD4FF4803010BD00000000002035
:103EE00008E0FFFD12494FF4FA520968B1FBF2F104
:103EF00041F288325143491E02D24FF000407047D0
:103F0000426B12F0450FF6D01205F4D4416B49070D
:103F100003D50421816308467047416BC90703D06C
:103F20000121816308467047C521816300207047E5
:103F3000000000200F494FF4FA520968B1FBF2F17A
:103F400041F288325143491E02D24FF0004070477F
:103F5000426B12F0450FF6D01205F4D4416B4907BD
:103F600003D50421816308467047C5218163002081
:103F7000704700000000002030B5204B4FF4FA5489
:103F80001B68B3FBF4F341F2883463435B1E02D237
:103F90004FF0004030BD446B14F0450FF6D02405BF
:103FA000F4D4436B5B0703D504218163084630BD1D
:103FB000436BDB0702D00121816303E00369DBB2BD
:103FC0008B4201D0012030BDC52181630021FFF764
:103FD00021FD10F4604F04D0410406D54FF4005089
:103FE00030BD000C1080002030BD000402D54FF41D
:103FF000805030BD4FF4803030BD00000000002004
:1040000010B590B004460120ADF838002068FFF7E5
:10401000FDFC002854D0606C032842D02068FFF7D4
:1040200028FE00284AD100212068FFF7F3FC6067D2
:1040300004212068FFF7EEFCA06708212068FFF745
:10404000E9FCE0670C212068FFF7E4FCC4F880007D
:10405000606C032825D00EA92068FFF74FFE0028CA
:104060002CD1606C03281CD0BDF8380020650104F9
:104070002068FFF714FE002820D100212068FFF7F8
:10408000C9FC606604212068FFF7C4FCA066082113
:104090002068FFF7BFFCE0660C212068FFF7BAFC40
:1040A000206704212068FFF7B5FC000DE06403A938
:1040B0002046FEF79BFC30B14FF0805010B010BD91
:1040C0004FF08060FAE7B4F8500000230204206843
:1040D000FFF7B6FD0028F1D104F1100007C88DE804
:1040E000070094E80F00FFF798FC0020E6E70000C7
:1040F0002DE9F84F0026044600963546B046006884
:10410000FFF70AFD002827D12068FFF72DFD4FF0AB
:10411000805B4FF001094FF6FF7748B1A664206835
:10412000FFF7FAFC002817D1A06C012802D020E08C
:10413000C4F8489000212068FFF7A1FC58B918E0A6
:1041400000212068FFF79BFC002805D1514620681C
:10415000FFF7AEFC10B15846BDE8F88F002120688B
:10416000FFF758FC05464FEAD0780098401C0090B5
:1041700002E0DFF82CA00098B84202D2B8F1000F9C
:10418000DED00098B84202D34FF08070E4E76800B8
:1041900002D5C4F8449000E066640020DCE700002B
:1041A000000010C110B5FEF72BF91DF0B9FF012872
:1041B00003D0BDE810401DF0A7BD10BD7047000042
:1041C0000148FEF7B6BF0000FC03002010B5406AAE
:1041D0000021C185C184FFF763F810BD0168CA687A
:1041E00022F49072CA6001684A6922F001024A61B1
:1041F000202180F83A10704710B590F83A10222923
:1042000001D0022010BD82684FF480539A4201D140
:10421000016921B1816A9A421BD04AB10AE0026861
:10422000816A5268C2F308020A80816A891C08E028
:10423000026972B10268526802F07F020A70816AF4
:10424000491C8162C18D491E0904090CC18503D036
:1042500016E002685268F1E70168CA6822F020029D
:10426000CA600168CA6822F48072CA6001684A693B
:1042700022F001024A61202180F83A10FFF762F92A
:10428000002010BD70B5044600680169E26821F4A1
:104290004051114301612169A068084361690843E5
:1042A0002168CA6841F20C639A430243CA602068DD
:1042B0004169A26921F44071114341611E4920689E
:1042C000884202D1FEF7BCF901E0FEF7A9F900EB44
:1042D000C00101EB0012606864218000B2FBF0F3C2
:1042E000B3FBF1F36FF018067343B2FBF0F5B2FBCA
:1042F000F0F605EB8305322303EB0515B5FBF1F56D
:10430000B6FBF1F605F0F00505EB0615B2FBF0F68D
:10431000B2FBF0F0B0FBF1F06FF01802504306EB87
:10432000800003EB0010B0FBF1F0216800F00F00FB
:104330002844886070BD00000038014010B5054871
:10434000FEF7B0FF012204490248FFF7D1F8002828
:10435000F8D110BDBC03002018000020FEE7490082
:1043600050EAC12018BF04204A0D18BF40F00100D8
:1043700040F2FF72B2EB515F08BF40F0020001282B
:1043800008BF052070470907090E002804DB00F16B
:10439000E02080F80014704700F00F0000F1E020EA
:1043A00080F8141D704730380A2801D20120704768
:1043B0000020704710B54021074801F06BF800223B
:1043C0000421064817F04EFD054CA06001F076FC74
:1043D0000020207010BD0000F4480020655D00083A
:1043E0000401002070B5B1F90030B2F90040A342D9
:1043F00000DC23460380B1F90250B2F90240A54225
:1044000000DD2C464480B1F90460B2F90450AE429C
:1044100000DA35468580B1F90610B2F906209142DE
:1044200000DB1146C1800120AB4201DC8C4200DD83
:10443000002070BDF8B50D460446B0F90000B1F992
:1044400000101646884247DBB4F90210B5F9022085
:10445000914241DBB4F90410B5F9042091423BDCF0
:10446000B4F90610B5F90620914235DC96B3ADF8E3
:1044700000006088ADF8020032466946284600F028
:1044800099F8002827D0A088ADF800006088ADF822
:10449000020032466946284600F08CF800281AD0FF
:1044A0002088ADF80000E088ADF802003246694689
:1044B000284600F07FF800280DD0A088ADF8000055
:1044C000E088ADF8020032466946284600F072F8EE
:1044D000002800D00120F8BD0020F8BDB0F9002070
:1044E000B1F904309A4213DCB0F90420B1F900307C
:1044F0009A420DDBB0F90220B1F906309A4207DC8E
:10450000B0F90600B1F90210884201DB01207047C2
:1045100000207047F8B50D460446B0F90400B1F923
:1045200000101646884243DBB4F90600B5F90210C4
:1045300088423DDBB4F90000B5F90410884237DC4D
:10454000B4F90210B5F90620914231DC76B3ADF82A
:1045500000006088ADF8020032466946284600F047
:1045600029F818BBA088ADF800006088ADF80200FB
:1045700032466946284600F01DF8B8B92088ADF8E3
:104580000000E088ADF8020032466946284600F097
:1045900011F858B9A088ADF80000E088ADF8020025
:1045A00032466946284600F005F808B10020F8BDFB
:1045B0000120F8BD2DE9FC4114460E46B1F900205A
:1045C000B0F9001005468A423ADBB5F90400824290
:1045D00036DCB6F90270B5F90220974230DBB5F946
:1045E00006309F422CDC002C75DD401A9A1A401CC4
:1045F000521C00B212B200EBD07002EBD27240102B
:104600005210904200DB1046844200DD0446ADF8B3
:104610000010288800222044ADF804006888ADF816
:104620000200688831462044ADF806006846FFF76E
:10463000C1FF40B1BDF804002044ADF804003FE0E4
:104640000020BDE8FC81E8880022001BADF80200D4
:10465000E888ADF8060031466846FFF7ABFF28B1A1
:10466000BDF804002044ADF8040011E0A888002241
:10467000001BADF80000A888ADF80400314668467C
:10468000FFF798FF50B1BDF80000001BADF8000027
:10469000BDF80200001BADF8020016E06888ADF816
:1046A0000200688800222044ADF8060031466846C2
:1046B000FFF780FF70B1BDF80000001BADF80000EF
:1046C000BDF806002044ADF806003146684616F0F5
:1046D00049F8B6E7FFE70120B3E710B5B1F90040AC
:1046E000B2F900309C4200DA23460380B1F902405F
:1046F000B2F902309C4200DA23464380B1F904400B
:10470000B2F904309C4200DD23468380B1F90610E3
:10471000B2F90620914200DC1146C18010BD0000B4
:10472000FEB5074617F09BFB0025354C0646009565
:1047300037B1F8686060384617F064FC606802E0E2
:104740000DF024FA6060006915F0B0FF6068406900
:1047500008B115F0ABFF6068C06915F0A7FF60688D
:10476000006A15F0A3FF60680169E1B316F024FA4E
:1047700016F0A0F96068B0F8501199B30168097C8F
:10478000890715D50DF060FA401E07B260680DF07C
:1047900015FA401E03B20022114601A800970CF042
:1047A000D7FC606801A90268926B516004F008FBB5
:1047B00060684FF48071303012F0C0FA60682021D8
:1047C00000F5987012F0BAFA6068A0F850513046BF
:1047D00017F03FFB009060680068436A13B12268DD
:1047E0000099984700E007E012F0F6F800F036F87C
:1047F000BDE8FE4000F006B8A0F85051FEBD000034
:104800008000002070B50A4D002400BFC4EBC40630
:1048100055F8260008B112F053F905EB86001C216B
:1048200012F08CFA641CE4B2042CEFD370BD0000CB
:10483000D0490020084949680AE04A68824202D00B
:104840000A68824203D10A7E42F001020A7649696F
:104850000029F2D17047000054000020704700008A
:104860000421014800F016BEE84800201C21014840
:1048700000F010BE004900202DE9FF5F0446DDE98D
:104880000E0613B9B0F5807F7ED0B6F900504FF018
:10489000FF376D42454307EB25252DB22580B6F93C
:1048A00002C0CCF1000C0CFB00FC07EB2C273FB244
:1048B0006780B6F900C0A1EB0C0141434FF0020C38
:1048C0000CEB212109B2A180B6F90280A2EB08020B
:1048D00042430CEB222000B2E080002B7ED04FF050
:1048E0000A0A93FBFAF5684200EB800003EB4007ED
:1048F00005F1010928B217F0BFFC00900FFA89F00A
:1049000017F0BAFC83465A3528B217F0B5FC80463A
:1049100009F15A0000B217F0AFFC0146009AC7F146
:104920000A0000FB02F300FB08F00BFB073301FB5E
:10493000070193FBFAF291FBFAF04FEA601AB4F91F
:104940000010B4F902000AFB01FCCDF80CC05511AF
:10495000378805FB10C207EBA2220FFA82F905FB8C
:1049600001F2BB46029277880AFB002107EBA121E6
:104970000BB2B4F90410BE460AFB01FC05FB10C2E1
:104980000BEBA22216B200E02FE005FB01F7CDE908
:10499000007CB4F90680DDF80CC00AFB007005FB52
:1049A00018C1DDF804C0009F05FB18C5029A0AFB78
:1049B000087C0AFB08220BEBA1210EEBAC270EEBC7
:1049C000A02009B20EEBA2220BEBA5250FFA87FC63
:1049D00000B212B22DB24F46494500E00EE000DAB7
:1049E0000F46B54216DAA84615E000202080491E81
:1049F0006080A180521EE280BDE8FF9F32882A4479
:104A0000228072883A44628032881144A180718881
:104A100008444FE0B046474504DA4F46494506DAB8
:104A20000F4604E0B54201DA2F4600E03746278002
:104A30004F46494500DD0F46B54201DDA84600E07E
:104A4000B046474503DD4D46494505DC01E0B5422A
:104A500001DD294600E03146A1809A4201DA15467F
:104A600000E01D46844501DA614600E001468D42C2
:104A700005DA9A4201DA114606E0194604E0844557
:104A800001DA614600E0014661809A4201DD11468B
:104A900000E01946844501DD654600E00546A9426F
:104AA00005DD9A4201DD104604E0184602E0844527
:104AB00000DD6046E0809FE72DE9FE4F0446D0F818
:104AC00000B0B0F90800E589081AB4F90A10511AC3
:104AD000D4E90932B5F5807F38D0A589ADB3A66B8E
:104AE000704345114E437011266BE16A06FB05F7D2
:104AF00001FB1077694306FB001003EBA72902EBCB
:104B0000A02080460612B4F904004FEA2927B842D3
:104B10004EDD002F4CDBB4F90610B14248DD002E0B
:104B200046DB94F834104A0745D58A0704F114038C
:104B300022D400FB067045004FF0020A0BEB050182
:104B40005246184612F0BCF827E00DE0256BE66AE5
:104B500005FB00F706FB1177464305FB016003EBFD
:104B6000A70902EBA000CCE7A56B68434D4303EB1C
:104B7000601902EB6510C4E700FB067000EB40050E
:104B80004FF0030A0BEB05010222184612F098F8C9
:104B9000E81C584410F8010CA07594F83400C007C4
:104BA0001FD04FF4FC60ADF80000A18A814218D1FB
:104BB0000020BDE8FE8F32B204F118002369CDE970
:104BC0000102002539B2AA468B4610F07FFB009007
:104BD000BDF80000A082DDE90102594610F00EFB8D
:104BE000DAE7E07C78B1A4F83C90A4F83E80A4F821
:104BF0004070A4F84260656484F848A02046BDE88F
:104C0000FE4F00F002B80120D3E72DE9F04F044633
:104C100090F83C10D0F8009090F83E0087B04FF02C
:104C2000FF36702907DAB4F940203546012A00D54D
:104C3000002580310DE0902916DDB4F94020B4F94B
:104C400004300125521C9A4200DB0025A1F27F119D
:104C50004942C9B28846702809DAB4F942100129DC
:104C600000D50026803010E00025FF21F2E79028D3
:104C70000DDDB4F94210B4F906200126491C914219
:104C800000DB0026A0F27F104042C7B201E0002600
:104C9000FF2760690090A07D059000208246834632
:104CA000049094F83400400744D594F84810606CA0
:104CB000022201FB0501494401A812F001F8B4F9F0
:104CC000040094F8481002224843616C06FB00116E
:104CD000494403A811F0F4FFB4F9041094F8480013
:104CE000626C414306FB012200FB05901118022271
:104CF00002A811F0E5FF94F83400800761D594F81C
:104D00004800616C00EB090200FB0513134413F823
:104D1000013C0493B4F90430434306FB031100FB48
:104D200005000A44014401EB090012F801AC10F837
:104D3000010C45E0B4F84000B4F94220284401B227
:104D400004F118008146236910F0C0FA0190B4F80C
:104D50004200B4F94010304402B254F8103F4846C3
:104D600010F0B4FA0390608E2368304402B2208EB3
:104D7000284401B2484610F0A9FA029094F82400A1
:104D8000103C80071DD5B4F9422034F8400F284468
:104D900001B2484610F032FA04906088B4F900106D
:104DA000304402B2484610F029FA82466088304406
:104DB00002B234F84009284401B2484610F01EFA05
:104DC000834694F8340042464546800735D5059918
:104DD000049B01FB08F1C8F1FF0003FB00110AFB73
:104DE00008F30BFB0030C1F30721C0F3072001FBE0
:104DF00007F3C7F1FF0600FB06331B0AA375022960
:104E000007D8022803D8002007B0BDE8F08F00279C
:104E100002E0022800D8FF270598022800D80022C7
:104E20000498022800D8FF22BAF1020F00D800250A
:104E3000BBF1020F03D8FF2501E0FF20A075EAB106
:104E4000FF2A04D0DDE900010CF0F8FC0090BDB1B0
:104E5000FF2D17D0DDE902102A460CF0EFFC04907C
:104E600097B1FF2F05D001463A4600980CF0E6FCBA
:104E70000090BDF80000A0820120C5E70198E5E799
:104E80000298ECE70398EAE7BDF81000F3E70000AA
:104E90002DE9F0470446B0F908000A2700026062D5
:104EA000B4F90A000002A062B4F90C1091FBF7F506
:104EB000684200EB800001EB4006684205F1010802
:104EC00000B217F0D9F98246E84300B217F0D4F9DE
:104ED0008146C5F15A0000B217F0CEF90546C8F177
:104EE0005A0000B217F0C8F9C6F10A0101FB0AF333
:104EF000024609FB0630694390FBF7F002FB0611FE
:104F000091FBF7F14011E06248112063A07C10F0A2
:104F10008AFA94F8341060F3000184F83410A07C0D
:104F200010F071FA94F8341060F3410184F83410F1
:104F3000A07C042824D0052822D0062820D021F0E7
:104F4000040100BF84F8341021682162A16921F0B6
:104F5000E00160F30401A08860F39421E08860F32D
:104F60005F51A161E0894FF4001101EB5001B1FBE9
:104F7000F0F0A063FF20A075208AA082BDE8F08732
:104F800041F00401DEE700002DE9F04115460E4630
:104F90000746114C16F063FF80462B4632463946D1
:104FA000204610F08DFD20B10020A062E06950B1D4
:104FB00010E02C21204611F0C1FE4FF00040A0620D
:104FC0000020BDE8F081404616F043FFE06108B9DB
:104FD0000120E0612046F4E72449002010B51421A7
:104FE000074800F057FA10F02FFD002807D00549B8
:104FF000016005494160054981600549C16010BDF6
:105000000C49002069540108E55701086959010855
:105010003754010870B50D4604461021284611F09A
:105020008DFE20680078012804D0022807D00428CB
:1050300007D008E0208A2880608A688003E0E06862
:1050400000E00A20686020684268002A03D02946F0
:10505000BDE87040104770BDFEB5866A0446BEB913
:10506000A08A218A0844A082E08A618A0844E082FA
:10507000204608F01CFA060079D020460AF0E8FC29
:105080000022092130460FF06DFB607880076ED456
:10509000208A10B9608A002869D00025ADF8045034
:1050A000ADF8085094F83C0000F00F00032830469B
:1050B00016D013F00DF90746304612F0E3FF034611
:1050C0000C200090B4F912103A46304606F089FEE2
:1050D000ADF80800304613F027F8C10712D017E0EA
:1050E00013F08AF80746304613F026F802460320EC
:1050F0000090B4F910103B46304606F072FEADF851
:105100000400E7E7BDF90410002901DDADF8045003
:10511000810705D4BDF90410002901DAADF8045067
:10512000410705D4BDF90810002901DDADF808508C
:10513000000705D4BDF90800002801DAADF80850D1
:1051400002AA01A9204619F0F8FB0023BDF90820A6
:10515000BDF90410304614F0DFFEA08ABDF804103B
:105160000844A082E08ABDF808100844E082FEBD31
:105170002DE9FC5F0446806A5FEA000B71D094F869
:105180003C0000076DD010F057FD019000684021F1
:10519000457E584613F0E1FE4FF0000818B9A4F818
:1051A0001A80A4F81880584613F084F882465846AE
:1051B00013F087F8064694F83C004FF0640900F0BD
:1051C0000F000C2802D003284CD09AE0A4F81880D5
:1051D00056B1B4F91A50002710F02EFD0068407E39
:1051E000C0F16401484622E0B4F91A00C5F1640137
:1051F000484390FBF9F06083584612F043FF0546A0
:10520000584613F065F802460C200090B4F91A10C5
:105210002B46584606F0E5FD6083024600231EE05B
:105220007A1917B201FB05F292FBF0F215B2002DCC
:10523000F6D1ADF80070A4F81A806A460021204625
:1052400019F07BFB41F6FF72BDF900305142584620
:1052500008F092FABDF800100123084402B20021C0
:105260004CE09AE0A4F81A80BAF1000F0AD0B4F921
:105270001850002710F0E0FC00684946407EC0F15D
:10528000640022E0B4F91800C5F16401484390FBC2
:10529000F9F02083584612F04FFF0546584612F0A9
:1052A000ABFF034603200090B4F918102A46584675
:1052B00006F097FD2083014600231EE07A1917B2FD
:1052C00000FB05F292FBF1F215B2002DF6D1ADF81C
:1052D0000070A4F8188000226946204619F02DFBC2
:1052E00041F6FF72BDF900305142584608F0BCF952
:1052F000BDF800100123084401B20022584614F002
:105300000BFE208B002848D1608B002845D1C6B900
:10531000584612F0DDFF0546584612F0B3FE002D48
:1053200006DC00280DDD002D02DA01232A4604E008
:10533000002806DA0123404202B20021584614F048
:10534000EBFDBAF1000F19D1584612F0F5FE0546F3
:10535000584612F051FF002D07DC00280EDD002D0D
:1053600003DA01230022294605E0002806DA01239A
:105370000022404201B2584614F0CEFD0A215846A0
:10538000019A0FF0EFF96078800706D414F83C0F0B
:1053900020F00F00207044F8148CBDE8FC9F000042
:1053A0007FB50E46040003D10CF0F0FB040023D0BF
:1053B0000025FEB1ADF80050ADF802500CF0FEFB38
:1053C000401EADF8040020460CF03EFC401EADF837
:1053D00006006A46314602A8FFF704F800280BD001
:1053E0002068017C890708D5DDE90001C4E90C01CA
:1053F00001202AE0A0F850517FBD82690AB102A9BC
:10540000904700260BE000BF04EBC601002202A873
:105410003031FFF70FF80028EED1761CB6B2B4F8A1
:105420005001B042F0D880B2202804D204EBC00072
:1054300002A9303004E0A4F8505104F1300069466C
:105440000BF0F8FDB4F85001401CA4F8500160685E
:105450000028D1D016F0E2FD7FBD002800D04068C2
:10546000704700B503460022FFF7F7FF03E0184638
:10547000521C00F004F80100F9D1104600BD00688C
:10548000091D40587047006840587047002800D0F8
:105490008068704700224260C91C21F003018260CD
:1054A0000160704770B504460068083011F07EFA5C
:1054B000050013D001460022204617F091FF29462F
:1054C0002046626817F086FF616819B12A462046B7
:1054D00017F086FF6560A06800B9A560284670BD1A
:1054E00070B504460068083011F060FA050013D06A
:1054F00001460022204617F06DFF29462046A2688B
:1055000017F06EFFA16819B12A46204617F062FF16
:10551000A560606800B96560284670BD28B1416823
:1055200009B9806808B1002070470120704770B544
:1055300004000DD0FFF791FF00228842204608D1D9
:10554000FFF79DFF6060011E01D000221EE0A260F7
:1055500070BDFFF79BFF8842206808440AD10168AC
:10556000A16029B12046BDE87040002217F032BF8B
:10557000626070BD05682046FFF781FF064602465F
:105580002946204617F026FF2A4631462046BDE828
:10559000704017F025BF10B50446006882680AB154
:1055A0002146904720680068002801D02060F5E778
:1055B00010BD8068002801D0B0F9160070470000C7
:1055C0002DE9F047074690B0408C189E40F004004B
:1055D000788490463A8499468A463289384613F050
:1055E00088FB0546A7F8209032895146384613F0CB
:1055F00080FB0446788CA54220F00400788403D117
:105600002904B1EB044F68D0A7F8208032895146B5
:10561000384613F06EFB05468046A7F820905146A9
:10562000384609F025FB318900682A4616F0E8F96A
:105630003089602823D147F6FF794D4501D04C458C
:105640001DD1384613F05CFC00EBD0704510384695
:1056500013F056FC00EBD0704010C84506D1691C11
:10566000431C994200DA00E0194688464C4506D1B1
:10567000691C421C914201DA6C1C00E01446184877
:10568000FFF710FF050028D02F60C5E9038430899B
:10569000A8806846C5F808A00BF082F81148FF21E1
:1056A000CDE9005010480290104803900020079068
:1056B000CDE9080130880A9070889DF83E1040427C
:1056C0000B90F0680690002060F300018DF83E100A
:1056D0003069059068460BF0B7F810B0BDE8F08768
:1056E0001849002089FF010875010208D10002084D
:1056F00014210148FFF7CEBE184900202DE9FC5FB8
:10570000002592468B4606462C46042743F60F0892
:1057100043F60E0901E100BFF06807EBC4014058F1
:1057200081017CD480B230EA0B0113D05FF000011C
:1057300030EA0A0010D00020814270D0F06801AA3F
:1057400041F6100150F83400009015F083FF002856
:1057500066D103E00121EBE70120EDE701AA41F664
:105760001101009815F076FF002873D101AA41F6C7
:105770001201009815F06EFF00286BD101AA41F6C6
:105780001301009815F066FF002863D101AA41F6C5
:105790001501009815F05EFF00285BD101AA41F6C3
:1057A0001401009815F056FFD0BB01AA41F269011F
:1057B000009815F04FFF98BB01AA43F20C01009826
:1057C00015F048FF60BB01AA43F20D01009815F0E7
:1057D00041FF28BB01AA41F20101009815F03AFFF0
:1057E000F0B901AA41F20401009815F033FFB8B9ED
:1057F00001AA41F20201009815F02CFF80B901AA1C
:1058000041F20301009815F025FF48B901AA41F2C1
:105810000501009815F01EFF10B901AA01E07BE018
:1058200018E041F20601009815F014FF90B901AAA2
:1058300041F23201009815F00DFF58B901AA414616
:10584000009815F007FF28B901AA4946009815F0FD
:1058500001FF10B10320BDE8FC9F01AA40F60A0138
:10586000009815F0F7FEE8BB01AA40F60B0100987E
:1058700015F0F0FEB0BB01AA4146009815F0EAFE13
:1058800080BB01AA4946009815F0E4FE50BB01AA6E
:1058900040F63C01009815F0DDFE18BB01AA40F669
:1058A0003D01009815F0D6FEE0B901AA40F63A0194
:1058B000009815F0CFFEA8B901AA4FF40461009832
:1058C00015F0C8FE70B901AA40F64501009815F020
:1058D000C1FE38B901AA40F64101009815F0BAFEA0
:1058E00000B900E014E001AA40F64201009815F06A
:1058F000B1FE68B901AA40F64301009815F0AAFE6E
:1059000030B901AA40F64901009815F0A3FE08B18C
:10591000022501E005B90125641C708CC0F3C500A7
:10592000A0423FF6F9AE284695E7000001484068DE
:1059300070470000800000207047C0F30410072863
:1059400000D907207047000010B518210348FFF761
:10595000A1FD03490120087010BD0000C4480020CB
:10596000300100202DE9F041094D90460E466A684D
:105970001C46074619469047306020B120686A6887
:10598000384400219047C8F80000BDE8F0810000CD
:10599000440100202DE9F04F87B08A46DDE9105818
:1059A0001F4693460446002105B129805CB120784A
:1059B000002809D0BAF1000F05D0002618F0060F14
:1059C00015D0002004E0002007B0BDE8F08F401C97
:1059D000215C0A2904D00D2902D00029F7D100E06A
:1059E000401C002DF0D04FF0FF312980ECE75FEA3A
:1059F000887001D541F6FF77894608468DF8141066
:105A0000049127E00498CDF8189068B34FF0000C8B
:105A100005AA06ABCDF80CC0CDF80080CDE9013267
:105A200020443B465A46514616F050FC06997A1AD5
:105A3000314417B20EB288B1049901440491207820
:105A40000A280BD00D2809D0605C0A280FD00D2839
:105A50000DD00846205C08B1002FD3DC049848B173
:105A600005B12E800498AFE74FF0010CD0E7481C39
:105A70000490F3E7064A04A9204652689047002D97
:105A8000F0D00146002250460EF045FF06B2E8E78E
:105A90004401002000230278232902D0012A0DD0DE
:105AA0000FE02AB10021012A04D0022A04D008E024
:105AB000012101E0017004E0017001E0202902D021
:105AC0000123184670470221F6E72DE9F0410E4602
:105AD00080460246002133460846FAF7F5FC0446A4
